:100000000C941A020C9442020C9442020C94420288
:100010000C9442020C9442020C9442020C94420250
:100020000C9442020C9442020C9442020C94420240
:100030000C9442020C9442020C9442020C94420230
:100040000C94F3160C9442020C9488150C94420202
:100050000C9442020C9442020C9442020C94420210
:100060000C9442020C944202991321142514641436
:10007000861390142B14F8120A13FD120E13381362
:100080004A139014951390149014771302136E135F
:100090009014051346149014C3135B135314AB133D
:1000A0001313601365137014687474703A2F2F6201
:1000B00069746C6173682E6E65740D0A53656520F2
:1000C0004C4943454E534520666F72206C69636509
:1000D0006E73652C20524541444D4520666F722059
:1000E000686F77746F0D0A50696E733A2064302D13
:1000F00032322C61302D32322020566172696162B9
:100100006C65733A20612D7A2C2033322062697439
:10011000206C6F6E6720696E7465676572730D0A77
:100120004F70657261746F72733A202B202D202AF4
:10013000202F20282029203C203C3D203E203E3DF1
:10014000203D3D20213D203C3C203E3E2021205EA4
:100150002026207C202B2B202D2D203A3D0D0A43DC
:100160006F6D6D616E64733A2000007072696E7419
:1001700020226269746C6173682068657265212051
:1001800076312E30726332202863292032303039A4
:100190002042696C6C20526F79202D747970652033
:1001A00048454C502D222C667265652C226279746C
:1001B0006573206672656522000101020203010376
:1001C0000101010201020200010502000202020314
:1001D000020100040101000001016162730061720B
:1001E0000061770062617564006265657000627528
:1001F00074746F6E7300636F6E73747261696E00F6
:1002000064656C61790064720064750064770065F0
:100210007200657700666C617368006672656500E0
:100220006B6579006D6170006D6178006D696C6C53
:100230006973006D696E006D6F76650070696E6D33
:100240006F64650070756C7365696E0072616E64D1
:10025000320072616E646F6D00736100736869666D
:10026000746F7574007369676E00736E6F6F7A6573
:100270000073720073796D7300757372007768652F
:10028000656C000065787065637465642000756E48
:10029000657870656374656420006D697373696E59
:1002A000672000737472696E670020756E646572F2
:1002B000666C6F7700206F766572666C6F77005E94
:1002C00043005E42005E5500657870006F70003A32
:1002D0007862792B2D2A2F00656F66007661720097
:1002E0006E756D62657200290073617665640065E4
:1002F0006570726F6D003A3D22003E20006C696EA1
:1003000065006368617200737461636B007374618C
:10031000727475700069640070726F6D7074000D96
:100320000A46756E6374696F6E733A006F6F70730F
:10033000000034444444400440444444444444445D
:100340004444087747857778787711111111118720
:100350008884422222222222222222222222222493
:1003600044724222222222222222222222222224D9
:100370008474626F6F740068656C70006966006CED
:10038000730070656570007072696E740070730040
:10039000726D0072756E0073746F7000737769749C
:1003A0006368007768696C6500001A1C101D1B1ECD
:1003B000181617191F1126267C7C3D3D213D2B2B3D
:1003C0002D2D3A3D3E3D3E3E3C3D3C3C000607085F
:1003D000090C0D14050B040A00000000240027007E
:1003E0002A0000000000250028002B00000000006B
:1003F0002300260029000404040404040404020267
:100400000202020203030303030301020408102093
:10041000408001020408102001020408102000009E
:1004200000070002010000030406000000000000B5
:1004300000007D1611241FBECFEFD8E0DEBFCDBF78
:1004400011E0A0E0B1E0EEEAF4E302C005900D9205
:10045000A632B107D9F713E0A6E2B1E001C01D92C0
:10046000A134B107E1F714E0C4E3D4E004C022975B
:10047000FE010E94351AC233D107C9F70E948115C7
:100480000C94551A0C940000DC012D923D924D9273
:100490005D926D927D928D929D92AD92BD92CD9224
:1004A000DD92ED92FD920D931D93CD93DD93FF911F
:1004B000EF918DB78D938EB78D938FB78D93ED930D
:1004C000FD93882799270994DC01CB0181309105A0
:1004D000811D2D903D904D905D906D907D908D9003
:1004E0009D90AD90BD90CD90DD90ED90FD900D91E3
:1004F0001D91CD91DD91ED91FD910D90F894FEBF90
:100500000FBEEDBFED91FD910994FB01DC018D91D2
:10051000059080190110D9F3990B0895FC010590FD
:100520000020E9F7809590958E0F9F1F0895FB019D
:10053000DC014150504048F005900D920020C9F771
:1005400001C01D9241505040E0F70895FB01DC01CD
:100550004150504048F001900D920020C9F701C071
:100560001D9241505040E0F70895AC01FB0112C0CC
:10057000F999FECF52BD41BDF89A80B590E033277E
:1005800027FD30958217930711F090E010C04F5F60
:100590005F4F31962081222359F7F999FECF52BD42
:1005A00041BDF89A80B590E0882309F491E0892F45
:1005B00008950F931F93CF93DF938C01C0E0D0E099
:1005C00009C0F999FECFD2BDC1BDF89A80B58F3F61
:1005D00031F4219683E0CF3FD8079CF330C0CE01A1
:1005E000B8010E94B502882369F02BC0F999FECFAB
:1005F000D2BDC1BDF89A80B58F3FB1F0882311F408
:10060000219612C0219683E0CF3FD80779F70CC01E
:10061000F999FECFD2BDC1BDF89A80B58F3F51F098
:10062000882311F4219606C0219683E0CF3FD80796
:100630007CF305C083E0CB3FD8070CF4CBCFCFEFE2
:10064000DFEFCE01DF91CF911F910F910895FB0154
:100650000DC0F999FECF31961FBA92BD81BD20BD64
:100660000FB6F894FA9AF99A0FBE0196382F492FCF
:100670002081222371F7F999FECF1FBA832F942F7F
:1006800092BD81BD10BC0FB6F894FA9AF99A0FBECC
:1006900008959C019FEFF999FECF32BD21BDF89AD4
:1006A00080B58F3F99F02F5F3F4FF999FECF1FBA6A
:1006B0002150304032BD21BD2F5F3F4F90BD0FB65E
:1006C000F894FA9AF99A0FBE882329F7C901089578
:1006D0000E94D90297FD04C00E9449030E94490369
:1006E00008958091810190918201A0918301B09140
:1006F00084010196A11DB11D809381019093820117
:10070000A0938301B09384010895209181013091D9
:10071000820140918301509184012F5F3F4F4F4FE1
:100720005F4F209381013093820140938301509366
:1007300084012150304040405040F999FECF1FBA0B
:1007400032BD21BD80BD0FB6F894FA9AF99A0FBE5A
:10075000089587FF02C084E00895E82FE695F0E051
:10076000EE5CFC4F949180FF03C0892F8F70089539
:10077000892F82958F7008958091920190919301B5
:10078000A0919401B09195010196A11DB11D809396
:10079000920190939301A0939401B09395018AB52F
:1007A0000E94A903E82FF0E0EE0FFF1FE050FF4F7B
:1007B0000190F081E02D09950895E0917A01F09182
:1007C0007B01F7FD03C080818ABD0895F999FECFB2
:1007D000FF77F2BDE1BDF89A80B58ABD8AB58F3F3B
:1007E00009F41ABC0895E0917A01F0917B01F7FDBC
:1007F0000FC08081882329F03196F0937B01E0932C
:100800007A01E0917A01F0917B0180818ABD21C05B
:100810009F013F77F999FECF32BD21BDF89A80B58F
:100820008ABD8AB58823A9F08AB58F3F91F02F5FE2
:100830003F4FF999FECF32BD21BDF89A80B58ABDF0
:10084000306830937B0120937A018AB58F3F09F499
:100850001ABC8AB50895906890937B0180937A01C1
:100860000E94DD03089502C00E94F3038AB50E942E
:10087000A9038823C9F30E94BC0308958AB58EBBDF
:100880000E94F303E6EBF3E040E02491222311F110
:100890003196549131978EB390E0332727FD3095F0
:1008A00082179307A1F48AB590E0252F332727FDFF
:1008B00030958217930759F4E42FFF27E7FDF09551
:1008C000E353FC4FE491EEBB0E94F303089532968C
:1008D0004F5FDBCF08958AB58EBB0E94F303089566
:1008E0008FE08EBB08959B01AC018091600288234C
:1008F00071F0E0916202F0E0EE0FFF1FEE0FFF1FBC
:10090000E559FD4F20833183428353830895CA0103
:10091000B9010E944917089588E0E3E6F2E0DF019B
:100920001D928A95E9F708950E948C0480E090E07A
:100930002FEFF999FECF1FBA92BD81BD20BD0FB632
:10094000F894FA9AF99A0FBE019634E08030930732
:1009500081F70895EF92FF920F931F93CF93DF9348
:10096000082F80911F02E82FF0E0EE0FFF1FE05EDE
:10097000FD4FC081D18160E00E9452187E01CE01FE
:100980000E94731718E00AC0602F617080911F02E7
:100990000E945218C7010E94731706951150A0F7C4
:1009A00080911F0261E00E945218CE01880F991FAA
:1009B0000E947317DF91CF911F910F91FF90EF90DD
:1009C0000895682F80911F02882329F486E293E01E
:1009D0000E94EB160895862F0E94AA0408958F9214
:1009E0009F92AF92BF92CF92DF92EF92FF920F93BE
:1009F0001F93DF93CF93CDB7DEB7A0970FB6F894D0
:100A0000DEBF0FBECDBF7B018C0161157105810575
:100A1000910521F480E30E94E10434C06E01089442
:100A2000C11CD11C842E9924AA24BB24C801B7015F
:100A3000A50194010E94E219F60161936F01C801BA
:100A4000B701A50194010E94E219C901DA017C01F4
:100A50008D01E114F1040105110541F70AC0F60109
:100A600080818A3014F4805D01C0895C0E94E104B9
:100A700003C08E010F5F1F4F0894C108D108C01634
:100A8000D10668F7A0960FB6F894DEBF0FBECDBFB3
:100A9000CF91DF911F910F91FF90EF90DF90CF905A
:100AA000BF90AF909F908F90089542E00E94EF0416
:100AB000089540E10E94EF040895EF92FF920F9392
:100AC0001F937B018C0197FF0BC08DE20E94E10414
:100AD00010950095F094E094E11CF11C011D111D8E
:100AE000C801B7014AE00E94EF041F910F91FF90E7
:100AF000EF9008958AE00E94E1048DE00E94E104F5
:100B00000895CF93DF93EC0103C021960E94E10486
:100B100088818823D1F7DF91CF910895EF92FF92DA
:100B20000F931F93CF93DF93C0E0D0E0E12CB0EEA2
:100B3000FB2E012D112DCE018F739070892B49F45E
:100B40000E947A05C801B7010E9459058AE30E94F4
:100B5000E104CE0187709070892B19F480E20E9425
:100B6000E104CE0183709070892B19F480E20E9419
:100B7000E104F999FECFD2BDC1BDF89A80B58823B2
:100B800011F48CE507C08F3F11F48EE203C0803270
:100B900008F48EE50E94E10421960894E11CF11C02
:100BA000011D111D84E0C030D80709F0C4CF0E9498
:100BB0007A05DF91CF911F910F91FF90EF900895EB
:100BC0001F93CF93DF93EC0101C02196F999FECFDB
:100BD000D2BDC1BDF89A10B5812F81508E3FE8F586
:100BE000123229F48CE50E94E10482E20DC01C352A
:100BF00029F48CE50E94E1048CE506C01A3039F432
:100C00008CE50E94E1048EE60E94E104DECF1930FB
:100C100029F48CE50E94E10484E7F6CF1D3029F425
:100C20008CE50E94E10482E7EFCF812F805280366D
:100C300090F08CE50E94E10488E70E94E104103105
:100C400018F480E30E94E104612F70E080E090E0FE
:100C50000E945905BACF812FD7CFDF91CF911F9135
:100C60000895EF92FF920F931F93CF93DF93C3E604
:100C7000D2E0EE24FF24870188819981892B89F0B5
:100C8000C801B7010E945D058AE30E94E10480E289
:100C90000E94E104888199819F770E94E0050E946B
:100CA0007A0522960894E11CF11C011D111D82E0B9
:100CB000CB36D80709F7DF91CF911F910F91FF90A5
:100CC000EF900895CF93DF9380917A0190917B010B
:100CD00097FD0FC0EC01C852D14004C080E20E94D1
:100CE000E1042197D7FFFACF8EE50E94E1040E942C
:100CF0007A05DF91CF9108951F93CF93DF93EC0195
:100D0000FE0114911F3F89F02196112341F4FE0149
:100D10008491882351F080E20E94E10402C01036E1
:100D200079F3812F0E94E104EBCFDF91CF911F91E6
:100D300008955F926F927F928F929F92AF92BF922F
:100D4000CF92DF92EF92FF920F931F93562E59018D
:100D50006A01C801B7010E94B01928EE33E040E0F3
:100D600050E00E94E219C901DA013C014D0160E244
:100D700071EA87E090E0A60195010E94E2197901ED
:100D80008A0189EF9FEFAFEFBFEFE80EF91E0A1F50
:100D90001B1F852D61E00E94321887010150104011
:100DA00013C0852D61E00E945218C7010E9473177D
:100DB000852D60E00E945218C8010E9473170894A4
:100DC000610871088108910861147104810491041B
:100DD00041F71F910F91FF90EF90DF90CF90BF9060
:100DE000AF909F908F907F906F905F900895EF925B
:100DF000FF920F931F93CF93DF938AB590E0C09734
:100E0000AA2797FDA095BA2F80937C0190937D012E
:100E1000A0937E01B0937F01CAE0D0E00E94F3036B
:100E2000992787FD90950E944D1A8ABD8AB588370B
:100E300019F4C0E1D0E0F2CF8AB590E0C0970A97EC
:100E400050F48AB5E82EFF2400E010E080ED9FEF1B
:100E5000AFEFBFEF12C0CA30D10579F18AB5813644
:100E600060F18AB5873648F58AB5E82EFF2400E0A0
:100E700010E089EA9FEFAFEFBFEFE80EF91E0A1FFF
:100E80001B1FBE01882777FD8095982F20917C013C
:100E900030917D0140917E0150917F010E94B019F7
:100EA000E60EF71E081F191FE0927C01F0927D01EB
:100EB00000937E0110937F01B1CF81E08EBBDF9163
:100EC000CF911F910F91FF90EF900895982F80532D
:100ED0008A3038F0892F992787FD90950E944D1A06
:100EE000875508951F93CF93DF93182FC0E0D0E06C
:100EF00010C084E0CC0FDD1F8A95E1F78AB50E940F
:100F00006607992787FD9095C80FD91F0E94F303A4
:100F10001150112371F7CE01DF91CF911F910895E8
:100F2000FF920F931F93CF93DF938C01EB01F42E6D
:100F300010927C0110927D0110927E0110927F012F
:100F400025C0C801BE010E948502009711F481E00E
:100F500022C0FF2011F097FD1DC080917C0190916F
:100F60007D01A0917E01B0917F010196A11DB11D6F
:100F700080937C0190937D01A0937E01B0937F01CB
:100F8000CE010E948E020196C80FD91FFE018491E6
:100F90008823B9F680E0DF91CF911F910F91FF90E8
:100FA00008951F93CF93DF93182FC4E8D2E007C0B2
:100FB000CE010E948E020196C80FD91F1150112335
:100FC000B9F7CE01DF91CF911F910895CF93DF93B1
:100FD0000E94D107EC01FE0121968491882319F02B
:100FE0000E94E104F8CFDF91CF9108950E94E607B7
:100FF0000E947A0508950F931F93182F062F809350
:1010000078016093790110921F020E946206812F7D
:101010000E94E607002319F0802F0E94F6078BE854
:1010200092E061E070E00E94640265E00E94FB07CC
:101030000895EF92FF920F931F93CF93DF939C013C
:101040007A018B01E3E6F2E0C0E0D0E0808191819B
:10105000892BD9F4CC0FDD1FFE01ED59FD4F3183F3
:1010600020830E943B17FE01EE0FFF1FDF01A558F2
:10107000BD4F6D937D938D939C931397E559FD4FD1
:10108000E082F1820283138308C021963296C43035
:10109000D105E1F688E10E941508DF91CF911F91FB
:1010A0000F91FF90EF900895DF93CF9300D0CDB7CD
:1010B000DEB786E293E00E942E16882379F086E25E
:1010C00093E00E944216039749F486E00E94F607D7
:1010D0008BE892E061E070E00E946402CE018054EF
:1010E0009340C2971CF486E10E9415080F900F9060
:1010F000CF91DF9108950F931F93CF93DF938AB51C
:1011000090E00E944D1A082F8093850111E00DC0D8
:1011100088E10E9415088AB590E00E944D1AE12FDF
:10112000F0E0EB57FE4F80831F5F0E94F303992787
:1011300087FD90950E94391A892B31F48AB58E3239
:1011400019F08AB58F3519F41C3028F3E1CFE12F5F
:10115000F0E0EB57FE4F1082113099F4C02FDD27DD
:10116000C7FDD095CE010E94461A892B61F083E01D
:101170008EBBC156D040CE01AA2797FDA095BA2FAD
:101180002FC01430B0F5013611F0043691F53091CE
:101190008601832F992787FD9095C0970A9748F578
:1011A00020918701822F992787FD9095C0970A97F4
:1011B00010F02223F1F4013611F083E101C082E145
:1011C0008EBB932F9053222339F020538AE098024C
:1011D000C0011124922F980F892F90E0A0E0B0E079
:1011E00080937C0190937D01A0937E01B0937F0159
:1011F00033C085E891E062E773E041E00E94900728
:10120000882349F0E0917C01F0917D01E655FC4F87
:10121000E491EEBB21C085E891E06AED71E041E028
:101220000E949007882311F08EE013C085E891E0BA
:101230000E94D902AA2797FDA095BA2F80937C011E
:1012400090937D01A0937E01B0937F01B7FD03C011
:1012500085E18EBB01C01EBADF91CF911F910F9126
:101260000895EF92FF920F931F937B018C01809161
:101270009601873018F089E00E9415088091960148
:10128000E82FF0E0EE0FFF1FEE0FFF1FE956FE4FB5
:10129000E082F182028313838F5F809396011F9116
:1012A0000F91FF90EF90089564E00E94FB0708956E
:1012B00080919601882319F489E00E945409E091F5
:1012C0009601E150E0939601F0E0EE0FFF1FEE0F64
:1012D000FF1FE956FE4F60817181828193810895DD
:1012E000BC0120E030E0C901860F971F8050944078
:1012F0005CF028C0F999FECF32BD21BDF89A80B5C7
:101300008F3F39F02F5F3F4F83E02F3F380794F333
:1013100019C0A901F999FECF52BD41BDF89A80B517
:101320008F3F41F44F5F5F4F83E04F3F580791F786
:1013300040E054E0CA01821B930B861797073CF4E8
:101340009A01D1CF81E10E94540920E030E0C90127
:101350000895682F82E00E94FB070895682F81E0BE
:101360000E94FB070895803218F08EE00E94AE09BB
:101370000895BF92CF92DF92EF92FF920F931F9347
:10138000B82E6A017B010E94B309BB2049F486E2B2
:1013900093E0B701A6010E94C51520E030E023C00C
:1013A0000B2D10E0000F111F005E1D4F60E472E472
:1013B0008FE090E0A70196010E94E219235030408F
:1013C000F801318320838B2D61E00E9432188B2D30
:1013D00061E00E945218F801808191810E94731788
:1013E000F80120813181C9011F910F91FF90EF9089
:1013F000DF90CF90BF9008951F93182F0E94B309DC
:1014000010931F02112389F0E12FF0E0EE0FFF1F70
:10141000E05EFD4F80819181892B39F4812F40E876
:1014200055E260E070E00E94B9091F910895DF92D3
:10143000EF92FF920F931F93CF93DF93EC010DE098
:10144000D02E19E0E12EB8E7FB2E0AE00E94F3034C
:10145000882319F48CE00E94AE098AB5823251F4D7
:101460000E94F303DF91CF911F910F91FF90EF90B6
:10147000DF9008958AB58C35E1F50E94F303823739
:1014800071F083371CF48E36A1F505C0843729F03E
:10149000883779F506C00ABD2CC0EABC2AC0DABC80
:1014A00028C00E94F303982F80538A3030F0815374
:1014B000863018F091549630C0F48AB50E946607C1
:1014C000182F0E94F303982F80538A3030F08153F5
:1014D000863018F09154963040F48AB50E94660721
:1014E0001295107F180F1ABD04C085E10E94AE0945
:1014F000FABC8AB5FE010995A9CF85E10E94AE0923
:101500006AB570E080E090E00E9459050E947A057B
:101510000895EF92FF920F931F93CF93DF93EC0107
:101520000E9458097B018C010E945809C532D105DF
:1015300009F464C0C632D1051CF5C730D10509F4E1
:101540009DC0C830D10564F4C530D10509F47BC015
:10155000C630D1050CF08BC0249709F0D0C069C00B
:10156000C930D10509F479C0C930D1050CF496C051
:10157000CA30D10509F4B1C02B9709F0C0C0B5C07D
:10158000CF32D105B1F1C033D1058CF4CA32D105C7
:1015900059F1CB32D10524F4A69709F0B0C093C01D
:1015A000CB32D105B9F0AD9709F0A9C018C0CE3340
:1015B000D105A1F1CF33D10524F4EC9709F09FC0F8
:1015C00022C0CE35D10509F483C0CC37D10509F04E
:1015D00096C074C06E0D7F1D801F911F8DC06E1947
:1015E0007F09800B910B88C0A80197010E94B01958
:1015F00083C0A80197010E94041A5DC0A801970149
:101600000E94041A79C020E030E040E050E06E15FE
:101610007F05800791070CF04EC049C020E030E004
:1016200040E050E0E616F706080719070CF043C043
:101630003EC020E030E040E050E0E616F706080744
:101640001907CCF134C020E030E040E050E06E15E6
:101650007F05800791077CF12AC020E030E040E060
:1016600050E06E157F058007910709F524C06115CC
:1016700071058105910539F460E00CC061157105B3
:101680008105910531F460E0E114F10401051105D3
:1016900009F061E070E080E090E02EC020E030E0F2
:1016A00040E050E06E157F058007910721F421E0AE
:1016B00030E040E050E0CA01B9011EC06E297F2928
:1016C000802B912B19C06E217F218023912314C080
:1016D0006E257F25802791270FC004C0660F771FD6
:1016E000881F991FEA94D2F707C004C09595879583
:1016F00077956795EA94D2F70E94310903C08AE092
:101700000E94AE09DF91CF911F910F91FF90EF9052
:101710000895682F80E00E94FB07089560E00E9412
:10172000FB0708950E94E10480E00E948E0B08955B
:101730000E94F303992787FD9095A92FB92F8093D5
:101740007C0190937D01A0937E01B0937F0181E0A5
:101750008EBB0E94F303873219F087E20E94920B3E
:101760000E94F3030895CF93DF93C0E0D0E0F9998E
:10177000FECFD2BDC1BDF89A80B58F3F39F4219616
:1017800083E0CF3FD8070CF035C0F1CFCE010E94E7
:10179000E00582E10E94E6070CC0F999FECFD2BDB8
:1017A000C1BDF89A80B58F3F59F0882311F4219676
:1017B00007C0219683E0CF3FD8077CF3CFEFD3E07B
:1017C000CE010E94E00582E20E94E1040E947A05B7
:1017D0000CC0F999FECFD2BDC1BDF89A80B58F3F3C
:1017E00009F4C5CF882309F4CACF219683E0CF3FFF
:1017F000D8077CF3DF91CF910895EF92FF920F937A
:101800001F93CF93DF93F82EE92E0E946803009177
:101810007A0110917B010150104010937B010093DD
:101820007A010E94DD0310928101109282011092D0
:1018300083011092840181E793E00E94170A2091AE
:1018400081013091820140918301509184012115E1
:1018500031054105510509F455C0AF2DBE2DFD01DF
:1018600001900020E9F7EA1BFB0B3196E20FF31F12
:10187000CF010E947009EC0197FD44C06F2D7E2DB1
:101880000E94270310937B0100937A010E94DD03DD
:10189000EF2DFE2DDF010D900020E9F7CD018E1B0D
:1018A0009F0B8C0F9D1FA0E0B0E08093810190936F
:1018B0008201A0938301B093840185E893E00E94A4
:1018C000170A8091810190918201A0918301B091CA
:1018D00084010196A11DB11D809381019093820125
:1018E000A0938301B09384010197A109B109F999EB
:1018F000FECF1FBA92BD81BD10BC0FB6F894FA9A04
:10190000F99A0FBEDF91CF911F910F91FF90EF9049
:101910000895DF93CF93CDB7DEB72D970FB6F89428
:10192000DEBF0FBECDBFCE01019665E871E04DE090
:1019300050E00E94A6020E94BC038EB3823219F0CE
:1019400083E00E94890BCE0101960E94FD0B80E18D
:101950000E94F6070E94BC032D960FB6F894DEBFD6
:101960000FBECDBFCF91DF9108950E94260F88EA68
:1019700090E00E947C068AE10E94E6078AED91E0F1
:101980000E947C060E947A050E947A050E94B30B91
:101990000895EF92FF920F931F930E9454088EB305
:1019A0008131F1F400917A0110917B0110937B0158
:1019B00000937A010E94DD030E94BC030E94711211
:1019C0006115710581059105B9F08EB38A3319F05F
:1019D0008AE30E94920B0E94BC030E94650EE6CF30
:1019E0008EB38031B9F40E94BC030E94711261155C
:1019F00071058105910519F48FE08EBB61C18EB32D
:101A00008A3319F08AE30E94920B0E94BC030E9461
:101A1000650E56C18EB38F3109F04CC00E94BC03D5
:101A20000E947112162F072FF82EE92E8EB38A33DB
:101A300019F08AE30E94920B212F302F4F2D5E2D3B
:101A4000C901DA017C018D0117FF03C0EE24FF24D8
:101A500087010E94BC038EB3853119F086E00E9495
:101A6000890B0E94BC038EB38B3399F08EB38F30F9
:101A700009F011C10EC08CE20E94920BE114F10436
:101A80000105110531F00894E108F1080109110977
:101A9000E0CF80917C0190917D010E943B108EB33C
:101AA0008B3309F40DC18EB38F3009F409C10E9444
:101AB000BC03F5CF8EB3853121F08EB3882309F0B6
:101AC000EFC00E94BC038EB3843119F40E94890CCC
:101AD000F7C08EB38B3321F08EB38F3009F0E5C0A1
:101AE00080917C0190917D010E943B10E9C00E9491
:101AF000BC038EB3853119F088E10E94AE090E94C3
:101B0000BC038EB38C32E1F460917C0170917D0155
:101B100080917E0190917F010E9431090E94BC0357
:101B20000E9471120E945809DC01CB01906840911B
:101B3000810150918201609183017091840109C0FB
:101B400080917C0190917D01906840E050E060E0E0
:101B500070E00E941908B4C08EB3893111F50E945B
:101B6000BC038EB38A3219F40E948C048EC08EB3EB
:101B70008B3321F08EB38F3009F09BC080916002CF
:101B8000882329F080916202E82FF0E095C00E943E
:101B90008C0496C0EE0FFF1FED59FD4F118210828D
:101BA0008FC08EB38A3109F44DC08EB38631A1F453
:101BB0000E94BC038EB3853129F485E891E00E9430
:101BC000680363C08EB38A3219F40E9494045DC026
:101BD00088E10E94890B59C08EB3883119F40E94A4
:101BE00031066EC08EB38B3129F40E94BC030E9473
:101BF0008E0566C08EB38D3129F40E94BC030E940D
:101C0000B30B5EC08EB38C3129F40E94BC030E94DA
:101C1000B50C56C08EB38E3129F40E94BC030E94CD
:101C2000AB144EC08EB38A3399F582E00E947207DE
:101C3000F82E84E00E9472078C0182E00E947207F5
:101C4000813021F4E0E0F0E009953AC0882309F002
:101C500037C001151105A1F40E94940411C082E05F
:101C60000E947207F999FECF1FBA12BD01BD80BD57
:101C70000FB6F894FA9AF99A0FBEFA940F5F1F4FB5
:101C8000FF2069F782E00E9472070E94BC0318C01F
:101C90000E944D1215C08EB38C3209F0ECCEEECE00
:101CA0008EB3873109F058CF22CF8BE30E94920B7D
:101CB00007C00E947112FB01E430F10508F46ACFFD
:101CC0001F910F91FF90EF90089505C00E94BC03F3
:101CD0008EB38F3011F00E94C90C8EB38B33B1F3E9
:101CE0000895DF93CF9300D0CDB7DEB79A83898371
:101CF00010927901109278018BE892E00E944402E0
:101D0000019729F40E948C0410921F0211C01092B6
:101D1000960189819A8190937B0180937A010E9438
:101D2000DD030E94BC038EB38F3011F00E94650E5C
:101D30000F900F90CF91DF910895CF93DF93809113
:101D40006102882309F07FC0C0E0D0E08091620288
:101D50008F5F80936202843010F010926202E091F3
:101D60006202F0E0EE0FFF1FED59FD4F808191817F
:101D7000892B09F463C00E943B1720916202A22FB5
:101D8000B0E0FD01EE0FFF1FEE0FFF1FE558FD4F06
:101D9000208131814281538162177307840795073F
:101DA00008F44CC081E080936002AA0FBB1FAD59BC
:101DB000BD4F8D919C91892B19F481E00E94AE0951
:101DC000E0916202F0E0EE0FFF1FED59FD4F8081C0
:101DD00091819F770CC0F999FECF92BD81BDF89A91
:101DE00020B52F3F59F0222311F4019607C0019628
:101DF00023E08F3F92077CF38FEF93E090680E947F
:101E0000710E0E943B17E0916202F0E0EE0FFF1F9F
:101E1000EE0FFF1FDF01A559BD4F2D913D914D9153
:101E20005C91260F371F481F591FE558FD4F20832F
:101E30003183428353831092600205C02196C430DF
:101E4000D10509F083CFDF91CF9108950F931F93B0
:101E500008E211E0C8016BE671E04FE450E00E9437
:101E60009702C8010E94710E1F910F9108950F9360
:101E70001F93DF93CF93CDB7DEB72D970FB6F894AE
:101E8000DEBF0FBECDBF89E10E94D107BC018E012C
:101E90000F5F1F4FC8014CE050E00E949702C8013D
:101EA0000E94D90297FF0DC017C0F999FECF92BDCD
:101EB00081BDF89A20B52F3F59F0222311F40196E5
:101EC00007C0019623E08F3F92077CF38FEF93E0EA
:101ED00090680E94710E03C083E10E94E6072D9670
:101EE0000FB6F894DEBF0FBECDBFCF91DF911F912B
:101EF0000F91089588E291E0909327018093260145
:101F00000E94370F04C086E293E00E94421686E2E8
:101F100093E00E942E168823B1F70895AB01BC010F
:101F200086E293E00E94C5150E94260F87E10E9479
:101F3000D107BC0188E291E04FE450E00E94970293
:101F400088E291E00E94D90297FD04C088E291E006
:101F50000E94710E0E947A0F08950F931F9386E2DC
:101F600093E00E942E16882309F480C080912601F8
:101F7000909127018757914018F084E10E9415083D
:101F800086E293E00E944216082F8D3021F08A30BD
:101F900011F0803661F40E947A05E0912601F091FB
:101FA0002701108288E291E00E94710E07C0833001
:101FB00041F486E00E94F6070E948C040E947A0F8A
:101FC00055C0823049F490E080916102882309F481
:101FD00091E0909361024AC0883011F08F37F9F494
:101FE00080912601909127018852914021F487E049
:101FF0000E94E1043BC088E00E94E10480E20E946C
:10200000E10488E00E94E104E0912601F0912701BB
:102010003197F0932701E0932601108227C0853184
:10202000D1F488E00E94F6070E94370F08E211E021
:10203000C8010E948105F80101900020E9F78F0195
:102040000150104008521140085D1E4F10932701A7
:10205000009326010BC00E94E104E0912601F0915B
:1020600027010193F0932701E09326010E949D0E22
:102070001F910F9108951F93CF93DF931EB397FD88
:102080002BC0C0917A01D0917B010CC0F999FECF91
:1020900092BD81BDF89A20B52F3F59F0222311F44B
:1020A000019607C0019623E08F3F92077CF38FEFE4
:1020B00093E00E942B040E94BC030E94650E8EB325
:1020C0008F3019F08CE00E94890BD0937B01C09374
:1020D0007A010E94DD031EBBDF91CF911F9108950D
:1020E000FF920F931F9300917C01F0907D011EB32E
:1020F0000E94BC03133109F4ACC01431A8F41C30A5
:1021000009F4C4C01D3030F4113021F1133009F04E
:1021100038C129C01E3009F47FC01E3008F4CEC07B
:10212000123109F02EC183C0183209F4E3C019320C
:1021300038F4153109F474C0113209F022C10BC111
:102140001D3209F4F3C01E3709F4FCC01B3209F03C
:1021500018C1C9CF60917C0170917D0180917E0191
:1021600090917F010BC18EB38D3389F40E94BC0323
:102170000E947112E02FF0E0EE0FFF1FEE0FFF1F25
:10218000E954FE4F608371838283938338C08EB39A
:102190008C30B9F410E0000F111F000F111F09540B
:1021A0001E4FF80160817181828193810E94310903
:1021B000F80180819181A281B3810196A11DB11D99
:1021C00019C08EB38D30D9F410E0000F111F000F2D
:1021D000111F09541E4FF801608171818281938122
:1021E0000E943109F80180819181A281B381019718
:1021F000A109B10980839183A283B38394C0E02FA6
:10220000F0E0EE0FFF1FEE0FFF1FE954FE4F60815D
:10221000718182819381B2C0802F0E948312B4C0E9
:102220000E94BC03802F9F2D0E943B101CC08EB3C8
:102230008D3359F40E94BC030E9471129B01AC01C2
:10224000802FB9010E94D9170EC0802F0E94BB17A2
:1022500016C08EB38D3381F40E94BC030E947112AC
:10226000802F0E94521860918101709182018091AB
:1022700083019091840182C0802F0E949F18AA2719
:1022800097FDA095BA2FBC01CD0178C08EB38330E5
:1022900019F08DE00E94890BE0917C01F0E0EE0FD7
:1022A000FF1FEE0FFF1FE954FE4F60817181828195
:1022B00093816F5F7F4F8F4F9F4F17C08EB38330D7
:1022C00019F08DE00E94890BE0917C01F0E0EE0FA7
:1022D000FF1FEE0FFF1FE954FE4F60817181828165
:1022E000938161507040804090406083718382830D
:1022F000938317C00E944D1280918001813019F0A4
:102300008EE00E94890B8EB3893219F08FE00E9413
:10231000A90960918101709182018091830190915E
:1023200084010E9431090E94BC032EC00E947010DB
:102330000E94580990958095709561957F4F8F4FB9
:102340009F4F1CC00E9470100E94580960957095A4
:102350008095909513C00E9470100E94580920E04B
:1023600030E040E050E0611571058105910521F4F0
:1023700021E030E040E050E0CA01B9010E9431099B
:1023800003C08EE00E94AE091F910F91FF90089547
:102390001F930E9470108EB38A3231F08EB38F3249
:1023A00019F08EB3853261F41EB30E94BC030E9403
:1023B0007010812F992787FD90950E94890AEBCF95
:1023C0001F9108951F930E94C8118EB38B3219F08C
:1023D0008EB38D3261F41EB30E94BC030E94C811FB
:1023E000812F992787FD90950E94890AEECF1F9132
:1023F00008951F930E94E2118EB38B3019F08EB3B3
:102400008A3061F41EB30E94BC030E94E211812F46
:10241000992787FD90950E94890AEECF1F91089514
:102420001F930E94F9118EB38C3379F08EB38430F0
:1024300061F08EB3883049F08EB3893031F08EB3BD
:102440008E3319F08EB3853061F41EB30E94BC0345
:102450000E94F911812F992787FD90950E94890A82
:10246000E2CF1F9108951F930E9410128EB38632FF
:1024700031F08EB38C3719F08EB38E3561F41EB304
:102480000E94BC030E941012812F992787FD90950E
:102490000E94890AEBCF1F9108951F930E94331267
:1024A0008EB3863019F08EB3873061F41EB30E946C
:1024B000BC030E943312812F992787FD90950E94BB
:1024C000890AEECF81E0809380010E9458096093D1
:1024D00081017093820180938301909384011F9105
:1024E00008950E944D1280918001813019F08EE094
:1024F0000E94890B6091810170918201809183011A
:102500009091840108959F92AF92BF92CF92DF92F3
:10251000EF92FF920F931F93DF93CF93CDB7DEB768
:1025200068970FB6F894DEBF0FBECDBF982EE82F88
:10253000FF27E7FDF095E754FE4FE49019821A82D9
:102540001B821C828EB38832F1F50E94BC03FF24EB
:10255000CE2CDD24C7FCD0945E010894A11CB11CD4
:1025600002C00E94BC038EB38932C1F00F2D10E06F
:102570000C151D059CF40E947112000F111F000F15
:10258000111F0A0D1B1DD80114966D937D938D9319
:102590009C931797F3948EB38C3219F38EB38932D0
:1025A00019F08FE00E94890B2F2D30E08E2D992796
:1025B00087FD90952817390719F08EE00E94890B46
:1025C0000E94BC0305C0EE2019F088E20E94920B25
:1025D000E92DFF27E7FDF095E032F10508F0A0C1F5
:1025E000EC5CFF4FEE0FFF1F0590F491E02D099476
:1025F000ED80FE800F8118852DC08D819E810E9407
:10260000731791C10E943B1749C18D8169850E9452
:10261000321889C18D810E949F185DC18D816985A5
:102620000E94521880C16D817E818F8198850E94A1
:10263000730479C168EE73E080E090E00E9449176E
:102640000E94540888E19CEFAFEFBFEFE80EF91E3F
:102650000A1F1B1F98EEE91693E0F90690E00907A0
:1026600090E019073CF7C801B7010E9449175BC108
:102670008D819E81AF81B885F999FECF92BD81BDD4
:10268000F89A80B590E0A0E0B0E089839A83AB83AC
:10269000BC8349C18D819E81AF81B8852985F99917
:1026A000FECF1FBA92BD81BD20BD0FB6F894FA9A35
:1026B000F99A0FBE38C186E293E00E942E16E2CF4F
:1026C00086E293E00E94421606C1809192019091A9
:1026D0009301A0919401B0919501D7CF2D813E81B6
:1026E0004F81588589859A85AB85BC85C6C02D816B
:1026F0003E814F81588589859A85AB85BC85821737
:102700009307A407B5070CF0C0CFBDC06D817E81D3
:102710008F81988529853A854B855C85ED84FE847B
:102720000F8518890E949906FEC0CE0180549340FF
:10273000D2C02D813E814F81588529833A834B83B6
:102740005C8357FFF0C088279927DC01821B930B1D
:10275000A40BB50B9ACF8D819E81AF81B8851816D9
:1027600019061A061B062CF481E090E0A0E0B0E008
:102770008CCF0097A105B10509F4D5C08FEF9FEF6D
:10278000AFEFBFEF82CF2091120130911301409142
:10279000140150911501E0901601F090170100917D
:1027A000180110911901CA01B901F9E196958795AF
:1027B00077956795FA95D1F76E0D7F1D801F911F54
:1027C000E7E0220F331F441F551FEA95D1F7622718
:1027D00073278427952760931201709313018093C8
:1027E0001401909315017F77807090702D813E8148
:1027F0004F8158850E94041A69837A838B839C8356
:10280000D801C70129E1B695A795979587952A958F
:10281000D1F781519144A245B142F7E0EE0CFF1C83
:10282000001F111FFA95D1F78E259F25A027B127EC
:102830008093160190931701A0931801B09319018A
:1028400072C08D810E94BB1746C069857A858D81D3
:102850000E94D91768C02D813E814F815885898596
:102860009A85AB85BC85281739074A075B070CF4A6
:102870000CCF8D859E85AF85B889281739074A0703
:102880005B070CF002CFDA01C901FFCE2D853E8532
:102890004F8558898D8169850E94EE1869837A83F6
:1028A0008B839C8340C00D81802F61E00E94321891
:1028B0001985812F61E00E943218802F612F4D858C
:1028C00029890E946F192FC049855A856B857C859F
:1028D0008D810E94B909AA2797FDA095BA2FD5CE60
:1028E0002D813E814F815885CA01B901E2E0660F12
:1028F000771F881F991FEA95D1F7620F731F841FF6
:10290000951F605A70408040904029E030E040E0E0
:1029100050E00E94041A29833A834B835C8303C0EE
:1029200088E10E94AE0969817A818B819C810E9435
:10293000310968960FB6F894DEBF0FBECDBFCF91B8
:10294000DF911F910F91FF90EF90DF90CF90BF909C
:10295000AF909F9008951F938EB3833281F40E94AD
:10296000BC030E947112162F8EB38A3319F08AE3CA
:102970000E94920B0E94BC03812F0E94FC098EB31F
:10298000823281F480917A0190917B01019790933A
:102990007B0180937A010E94DD0381EE94E00E9426
:1029A000170A70C00E944D128EB38A3309F06DC0B1
:1029B0000E94BC038EB3833009F086C080917C01F5
:1029C00090917D01A0917E01B0917F014797A10573
:1029D000B10509F079C06091810170918201809107
:1029E0008301909184010E9459054CC080917C0123
:1029F00090917D01A0917E01B0917F010197A10589
:102A0000B10509F065C060918101709182018091EA
:102A10008301909184010E94550534C080917C010E
:102A200090917D01A0917E01B0917F014897A10511
:102A3000B10509F051C0809181010E94E10422C0DA
:102A40008EB30E94E1048091810190918201A09156
:102A50008301B09184010197A109B109809381019B
:102A600090938201A0938301B09384010196A11DEC
:102A7000B11D181619061A061B0614F303C08BE0C5
:102A80000E94890B0E94BC030AC060918101709171
:102A9000820180918301909184010E945D058EB333
:102AA0008B3319F08EB38F30E1F40E947A0508C0A1
:102AB0000E94BC038EB38B3319F08EB38F30B1F408
:102AC00010921F021F9108958EB3833009F48ECFA8
:102AD0008EB3833009F4A2CF8EB3813208F0B3CF26
:102AE000CECF8EB38C3209F037CFE2CF80E20E9496
:102AF000E10432CF60E071EE80E090E00E948E0F42
:102B000008950E9481170E947A150E94AD0FFDCF93
:102B10001F920F920FB60F9211242F933F934F9352
:102B20005F936F937F938F939F93AF93BF93EF9335
:102B3000FF934091C600E0912203F0912303CF015F
:102B4000019660E870E00E94CF199C0180912403F7
:102B5000909125032817390739F0EE55FD4F408332
:102B60003093230320932203FF91EF91BF91AF9104
:102B70009F918F917F916F915F914F913F912F9195
:102B80000F900FBE0F901F901895AF92BF92CF92EB
:102B9000DF92EF92FF920F931F93CF93DF936C011D
:102BA0007A018B01DC011496AD90BC901597CB0196
:102BB000BA0122E030E040E050E00E94041A205CBC
:102BC0003D4B404F5F4FCA01B901A80197010E94D8
:102BD000041AC901DA010197A109B109292F3A2F75
:102BE0004B2F552747FD5A950196A11DB11DE501B3
:102BF0002883E601EE81FF8181508083EA85FB8591
:102C0000208141E050E0CA010E8402C0880F991F64
:102C10000A94E2F7282B2083EA85FB852081CA01EC
:102C20000F8402C0880F991F0A94E2F7282B208393
:102C3000EA85FB858081088802C0440F551F0A94ED
:102C4000E2F7842B8083DF91CF911F910F91FF904A
:102C5000EF90DF90CF90BF90AF900895DC01129677
:102C6000ED91FC911397E058FF4F8191919180581D
:102C70009F4F20813181821B930B60E870E00E949E
:102C8000CF190895CF93DF93DC011296ED91FC915B
:102C90001397EF01CE57DF4F48815981E058FF4F1E
:102CA00080819181E058F0408417950719F42FEF47
:102CB0003FEF0CC0E40FF51F2081CA01019660E8C8
:102CC00070E00E94CF199983888330E0C901DF91B9
:102CD000CF910895FC01A085B18521898C9190E068
:102CE000022E02C0959587950A94E2F780FFF6CFF1
:102CF0000484F585E02D608308958FE191E0909341
:102D000027038093260382EA92E09093290380931D
:102D1000280385EC90E090932B0380932A0384ECA6
:102D200090E090932D0380932C0380EC90E090939F
:102D30002F0380932E0381EC90E0909331038093D6
:102D4000300386EC90E0909333038093320384E069
:102D50008093340383E08093350387E080933603C8
:102D600085E08093370308950F931F93CF93DF93EC
:102D70008C01EB0109C02196D801ED91FC910190E5
:102D8000F081E02DC801099568816623A1F7DF91E4
:102D9000CF911F910F910895EF92FF920F931F9380
:102DA000CF93DF938C017B01EA010CC0D7016D91B9
:102DB0007D01D801ED91FC910190F081E02DC801D9
:102DC00009952197209791F7DF91CF911F910F914E
:102DD000FF90EF900895DC01ED91FC910190F0815E
:102DE000E02D099508951F920F920FB60F921124AE
:102DF0002F933F938F939F93AF93BF9380913C0307
:102E000090913D03A0913E03B0913F033091400368
:102E10000196A11DB11D232F2D5F2D3720F02D57B9
:102E20000196A11DB11D2093400380933C03909314
:102E30003D03A0933E03B0933F03809138039091EC
:102E40003903A0913A03B0913B030196A11DB11D36
:102E50008093380390933903A0933A03B0933B03D4
:102E6000BF91AF919F918F913F912F910F900FBE86
:102E70000F901F9018958FB7F89420913C033091D4
:102E80003D0340913E0350913F038FBFB901CA01FA
:102E90000895EF92FF920F931F937B018C018FB7E0
:102EA000F89440913C0350913D0360913E03709132
:102EB0003F038FBF2FB7F89480913C0390913D035F
:102EC000A0913E03B0913F032FBF841B950BA60B2F
:102ED000B70BE816F9060A071B0760F71F910F9159
:102EE000FF90EF900895019759F0FC01EE0FFF1F3E
:102EF000EE0FFF1F32978FB7F8943197F1F78FBF1E
:102F00000895789484B5826084BD84B5816084BD61
:102F100085B5826085BD85B5816085BDEEE6F0E052
:102F2000808181608083E1E8F0E08081826080833D
:102F3000808181608083E0E8F0E08081816080832F
:102F4000E1EBF0E0808184608083E0EBF0E0808161
:102F500081608083EAE7F0E0808184608083808103
:102F600082608083808181608083808180688083AB
:102F70001092C1000895877090911A019295990F4F
:102F8000990F907C982B90937C0080917A008064BC
:102F900080937A0080917A0086FDFCCF20917800A2
:102FA00040917900942F80E030E0282B392BC90123
:102FB00008951F93CF93DF93182FEB0161E00E94D8
:102FC0003218E12FF0E0E25EFB4F8491833051F440
:102FD00080918000806880938000D0938900C093A6
:102FE00088003CC0843051F48091800080628093DE
:102FF0008000D0938B00C0938A0030C0813039F4B8
:10300000209729F184B5806884BDC7BD27C0823070
:1030100039F42097E1F084B5806284BDC8BD1EC03C
:10302000863041F48091B00080688093B000C093F6
:10303000B30014C0873041F48091B0008062809367
:10304000B000C093B4000AC0C038D1051CF4812F71
:1030500060E002C0812F61E00E945218DF91CF91A1
:103060001F910895282F30E0C901865F9B4FFC0116
:1030700094912A503C4FF9018491882391F0E82FD4
:10308000F0E0EE0FFF1FE852FC4FA591B4916623CC
:1030900029F48C91909589238C9308958C91892B98
:1030A0008C930895482F50E0CA01825E9B4FFC012B
:1030B0002491CA01865F9B4FFC0194914A505C4F5A
:1030C000FA0134913323D1F1222331F1233021F459
:1030D000809180008F7705C0243031F4809180008A
:1030E0008F7D8093800018C0213019F484B58F77CC
:1030F00004C0223021F484B58F7D84BD0DC02630FC
:1031000021F48091B0008F7705C0273029F4809199
:10311000B0008F7D8093B000E32FF0E0EE0FFF1F33
:10312000EE51FC4FA591B491662329F48C919095B2
:1031300089238C9308958C91892B8C930895682F03
:1031400070E0CB01825E9B4FFC012491CB01865F36
:103150009B4FFC0144916A507C4FFB019491992351
:1031600019F420E030E038C0222331F1233021F47B
:10317000809180008F7705C0243031F480918000E9
:103180008F7D8093800018C0213019F484B58F772B
:1031900004C0223021F484B58F7D84BD0DC026305B
:1031A00021F48091B0008F7705C0273029F48091F9
:1031B000B0008F7D8093B000892F90E0880F991F19
:1031C00084519C4FFC01A591B4918C9120E030E09A
:1031D000842311F021E030E0C9010895DF92EF92DD
:1031E000FF920F931F93A82FB0E0CD01865F9B4FF6
:1031F000FC01D490AA50BC4FFD018491662311F4C8
:1032000090E001C09D2D6FEFE62E6FEFF62E6FEF71
:10321000062F6FE0162FE222F32204231523682FD6
:1032200070E0660F771F64517C4F20E030E040E093
:1032300050E0FB01A591B4910AC02E153F0540074F
:10324000510709F440C02F5F3F4F4F4F5F4F8C91A4
:103250008D21891791F30AC02E153F0540075107AC
:1032600091F12F5F3F4F4F4F5F4F03C0FB01A5917F
:10327000B4918C918D21891779F720E030E040E0FE
:1032800050E0FB01A591B49104C02F5F3F4F4F4F19
:103290005F4F8C918D218917C1F3CA01B9012AE0D2
:1032A00030E040E050E00E94B0199B01AC01205F8B
:1032B0003F4F4F4F5F4F84E0569547953795279581
:1032C0008A95D1F704C020E030E040E050E0B90139
:1032D000CA011F910F91FF90EF90DF900895BF9268
:1032E000CF92DF92EF92FF920F931F93CF93DF93D2
:1032F000E82EF62EB42EC0E0D0E0022F10E087E0DA
:10330000C82ED12CBB2041F4B8010C2E02C07595FB
:1033100067950A94E2F70AC0B6016C1B7D0BC801E1
:1033200002C0959587956A95E2F7BC0161708E2D74
:103330000E9452188F2D61E00E9452188F2D60E07C
:103340000E9452182196C830D105E1F6DF91CF9145
:103350001F910F91FF90EF90DF90CF90BF90089555
:10336000629FD001739FF001829FE00DF11D649F69
:10337000E00DF11D929FF00D839FF00D749FF00DF5
:10338000659FF00D9927729FB00DE11DF91F639F96
:10339000B00DE11DF91FBD01CF011124089597FB68
:1033A000092E07260AD077FD04D049D006D0002088
:1033B0001AF4709561957F4F0895F6F79095819571
:1033C0009F4F0895A1E21A2EAA1BBB1BFD010DC041
:1033D000AA1FBB1FEE1FFF1FA217B307E407F507C5
:1033E00020F0A21BB30BE40BF50B661F771F881FA1
:1033F000991F1A9469F760957095809590959B0137
:10340000AC01BD01CF01089597FB092E05260ED012
:1034100057FD04D0D7DF0AD0001C38F450954095F2
:10342000309521953F4F4F4F5F4F0895F6F7909598
:103430008095709561957F4F8F4F9F4F0895AA1B80
:10344000BB1B51E107C0AA1FBB1FA617B70710F08F
:10345000A61BB70B881F991F5A95A9F780959095C1
:10346000BC01CD010895EE0FFF1F0590F491E02DF2
:103470000994911106C080538A5010F0865C06C0F2
:10348000089599278827089585FDFBCF80629111C3
:10349000F8CF81568A51E0F708959111089581542B
:0E34A0008A5108F4805E855A0895F894FFCF93
:1034AE003304F7067B0870047D0A980B00006B044A
:1034BE003E04FECAEFBEEFBEADDE01000000006AA4
:0634CE0016B416CC160036
:00000001FF
